:04000000C2EF08F053
:08000800046ED8CF05F0E0CF33
:1000100006F00001E9CF0CF0EACF07F0E1CF08F0DD
:10002000E2CF09F0D9CF0AF0DACF0BF0F3CF12F01C
:10003000F4CF13F0FACF14F000C00EF001C00FF0AF
:1000400002C010F003C011F09DAA2AEF00F09EBA82
:1000500095EF00F09DA030EF00F09EB072EF00F041
:10006000F2AA36EF00F0F2B457EF00F00EC000F045
:100070000FC001F010C002F011C003F00CC0E9FF86
:1000800007C0EAFF078E08C0E1FF09C0E2FF0AC00F
:10009000D9FF0BC0DAFF12C0F3FF13C0F4FF14C086
:1000A000FAFF045006C0E0FF05C0D8FF1000192A6F
:1000B000D8B41A2A1950720807E11A500B0804E143
:1000C0001CA001D01C900BD01950E40808E11A5074
:1000D000160805E11A6A196A1CB001D01C80F29456
:1000E00036EF00F0192AD8B41A2A19500A0809E183
:1000F0001A5207E11A6A196A1CA002D01C9001D09A
:100100001C809E9036EF00F00900F5520DE0F6CF0E
:1001100034F0F7CF35F0F5509EA8FED7AD6E34C061
:10012000F6FF35C0F7FFF0D7000C9EAAFED7AECF82
:100130001EF0610E1E5CF80F15E2080FD3EF00F001
:10014000010E1B6E1C8A0ED0020E1B6E1C8A0AD07A
:10015000030E1B6E1C8A06D0040E1B6E1C8A02D076
:100160001C8600D01CAA1AD0D00EF66E010EF76EB7
:10017000CBDF9EAAFED7AECF1DF01D50720A03E062
:100180001E0A06E00AD01C96040E1F6E1C9A05D0AB
:100190001C96040E1F6E1C9A00D002D0040E1F6E17
:1001A0009E9A36EF00F0E824F76AF736C10FF66E34
:1001B000010EF7220A00F550FA6E0800F550F96EAC
:1001C000400148015001580164016401640160016B
:1001D0000D4573636F6C6861206F206C61646F20E4
:1001E000646F206164766572736172696F0D0000DF
:1001F000536F667477617265204C6F626F0D446156
:1002000074613A32332D6E6F762D31370D486F722F
:100210006172696F3A32303A35323A35360D000044
:10022000FF0E926E000E936E860E946E000E956E0B
:100230009682968296829682E2EF08F0202C17D062
:100240005F0E6F6EFF0E6B6E6E6A7F6A800E7E6E43
:10025000210E6D6E7D6A7C6A370E7B6E010E7A6EA2
:10026000716A706A939C8A8C939E8A8E05D06F6A9D
:10027000939C8A9C939E8A9EE6EF08F0B980C19C6D
:10028000C19EFF0EB86E000B9A6EC050800B07091E
:10029000C06EC294C296C298C29AC08EC280E8EF65
:1002A00008F0202C06D0C00ED56ED76AD66AF28A26
:1002B00001D0F29A000C202C08D0950ECD6EA80E1D
:1002C000CF6E1B0ECE6E9D8001D09D90EEEF08F09C
:1002D000EA6A220EE96EEF500DE0060E016E006A2A
:1002E000002EFED7012EFBD77B0E006E002EFED710
:1002F000EF2EF3D7000C206A205004080BE3040E05
:10030000216EF00E226EE4DF212EFBD795968C76BF
:10031000202AF2D702EF09F0276A266A2550F90F42
:1003200019E2070FE2EF01F0100E996E050EC26E92
:1003300011D0040E996E090EC26E0CD0996A010E8E
:10034000C26E08D0996A0D0EC26E04D0996A090E69
:10035000C26E00D0100E006E002EFED70000C282CA
:10036000C2B2FED7C3CF26F0C4CF27F02550050870
:1003700003E0255006080FE12750245C08E303E161
:100380002350265C04E2010E016E1BD003D0000E48
:10039000016E17D016D0255206E02550020803E062
:1003A000255003080EE12750245C08E303E12350A5
:1003B000265C04E2010E016E04D003D0000E016E33
:1003C00000D0000CF2CF0DF0F29EE824F76AF73669
:1003D000E90FF66E030EF7220A00F550FA6E0800D8
:1003E000F5500DBEF28EF96E3C0354034C034403EA
:1003F00054032803320321506C0A06E0080A32E055
:10040000050AD8B46CD0B1D0030E246E200E236E32
:10041000060E256E81DF015202E0178801D0179881
:10042000030E246E200E236E050E256E75DF01521D
:1004300002E0178601D01796226A225002080EE3C6
:10044000010E006E2250016E04E0D8900036012E9D
:10045000FCD70050FF0A1716222AEFD717C001F069
:1004600099D098D0010E246ED60E236E030E256E01
:1004700053DF015202E0178401D01794010E246E5D
:10048000D60E236E020E256E47DF015202E0178260
:1004900001D01792010E246ED60E236E256A3CDF22
:1004A000015202E0178001D01790030E226E2250F5
:1004B000020811E2225004080EE3010E006E2250E1
:1004C000016E04E0D8900036012EFCD70050FF0AE0
:1004D0001716222AECD717C001F05CD05BD0030EB0
:1004E000246E200E236E060E256E16DF015202E0EA
:1004F000178801D01798030E246E200E236E050E68
:10050000256E0ADF015202E0178601D01796010E10
:10051000246ED60E236E030E256EFEDE015202E01F
:10052000178401D01794010E246ED60E236E020E8E
:10053000256EF2DE015202E0178201D01792010E01
:10054000246ED60E236E256AE7DE015202E0178084
:1005500001D01790175205E01750070802E317C0A3
:1005600018F017C001F016D015D0226A22500408E6
:100570000EE3010E006E2250016E04E0D8900036AA
:10058000012EFCD70050FF0A1716222AEFD717C0FA
:1005900001F000D0000C8E0E006E2AC001F029C0C0
:1005A00002F0036A015209E102C001F0026A080E7A
:1005B000005E015202E1006A08D0D89001BE04D06A
:1005C000023601360006F9D7019E000C2950D8B436
:1005D00071D0006E2D50D8B46DD0002604E3810E8A
:1005E000002668E204D07F0E005E64E363E02AC068
:1005F00031F02E50311A2A8E2E8E2C503002F4CF2C
:1006000033F02B502F02F4CF03F0F3CF32F030024F
:10061000F3503326F4503222000E03222C502F02C6
:10062000F3503326F4503222000E026A03220222D3
:100630002A503002F3503226F4500322000E0222D8
:100640002A502F02F3500326F4500222000E016AB2
:1006500001222C502E02F3503226F4500322000EB9
:10066000022201222B502E02F3500326F4500222C4
:10067000000E01222A502E02F3500226F4500122CD
:10068000002A01BE05D03236033602360136000696
:10069000000E32AE0AD0032A02220122015005E1E7
:1006A000025003E1035001E1002A31BE018E31AE58
:1006B000019E04D0006A016A026A036A000C8E0E71
:1006C000006E2950005E2AC002F02BC001F0028E9D
:1006D000005209E0D890025202E1015204E00232D5
:1006E0000132002EF7D72AAE05D0011E021E012AC4
:1006F000D8B4022A000C2850660A06E0040A3EE03C
:10070000120AD8B475D07CD027C02AF026C029F0B0
:1007100042DF03C02CF002C02BF001C02AF000C061
:1007200029F00A0E306ED70E2F6E230E2E6E780E25
:100730002D6E4CDF2C6A800E2B6E1B0E2A6E890EDE
:10074000296E03C030F002C02FF001C02EF000C0AF
:100750002DF03CDF03C02CF002C02BF001C02AF0CA
:1007600000C029F0ACDF6E8201C079FF02C078FFC3
:100770006E926E82776A766A6E9242D06E82796AE3
:10078000786A6E9227C02AF026C029F004DF03C0E1
:100790002CF002C02BF001C02AF000C029F00A0E94
:1007A000306ED70E2F6E230E2E6E780E2D6E0EDF4E
:1007B0002C6A800E2B6E1B0E2A6E890E296E03C0CA
:1007C00030F002C02FF001C02EF000C02DF0FEDE90
:1007D00003C02CF002C02BF001C02AF000C029F0A9
:1007E0006EDF6E8201C077FF02C076FF6E9208D086
:1007F0006E82796A786A6E926E82776A766A6E9293
:10080000000C2850620A06E0040A3EE0160AD8B43A
:1008100075D07CD027C02AF026C029F0BCDE03C0EA
:100820002CF002C02BF001C02AF000C029F00A0E03
:10083000306ED70E2F6E230E2E6E780E2D6EC6DE06
:100840002C6A800E2B6E1B0E2A6E890E296E03C039
:1008500030F002C02FF001C02EF000C02DF0B6DE47
:1008600003C02CF002C02BF001C02AF000C029F018
:1008700026DF6E8201C075FF02C074FF6E926E8229
:10088000736A726A6E9242D06E82756A746A6E92F0
:1008900027C02AF026C029F07EDE03C02CF002C05B
:1008A0002BF001C02AF000C029F00A0E306ED70EDE
:1008B0002F6E230E2E6E780E2D6E88DE2C6A800E23
:1008C0002B6E1B0E2A6E890E296E03C030F002C0FB
:1008D0002FF001C02EF000C02DF078DE03C02CF008
:1008E00002C02BF001C02AF000C029F0E8DE6E82C1
:1008F00001C073FF02C072FF6E9208D06E82756AEB
:10090000746A6E926E82736A726A6E92000C2550DF
:10091000660A09E0040A16E0030A23E0090A30E047
:10092000180A3DE047D022C027F021C026F0660E0D
:10093000286EE1DE24C027F023C026F0660E286E64
:1009400060DF42D022C027F021C026F0620E286E60
:10095000D2DE24C027F023C026F0620E286E51DFBD
:1009600033D022C027F021C026F0620E286EC3DEED
:1009700024C027F023C026F0660E286E42DF24D064
:1009800022C027F021C026F0660E286EB4DE24C0F7
:1009900027F023C026F0620E286E33DF15D0276AB9
:1009A000266A700E286E2DDF276A266A700E286E62
:1009B000A2DE0AD0276A266A700E286E22DF276A16
:1009C000266A700E286E97DE000C610E216E13DD14
:1009D000015234E120506C0A03E01E0A17E02DD0CA
:1009E000226A2D0E216E246A236E610E256E8FDF22
:1009F000182C0BD0226A216A246A236A700E256E95
:100A000086DF500E226E64DC186A17D0226A2D0E23
:100A1000216E246A236E680E256E79DF1850040853
:100A20000BE1226A216A246A236A700E256E6FDF49
:100A3000500E226E4DDC186A00D08BD0610E216EF4
:100A4000DADC0150170812E2610E216ED4DC01508D
:100A50001F080CE3226A410E216E246A236E620E87
:100A6000256E55DFD70E226E33DC73D0610E216EFA
:100A7000C2DC01500F0812E2610E216EBCDC015095
:100A800017080CE3226A410E216E246A236E620E5F
:100A9000256E3DDFD70E226E1BDC5BD0610E216E12
:100AA000AADC0150070812E2610E216EA4DC01509D
:100AB0000F080CE3226A410E216E246A236E620E37
:100AC000256E25DFD70E226E03DC43D0610E216E2A
:100AD00092DC0150020818E0610E216E8CDC01509E
:100AE000050812E0610E216E86DC015007080CE05B
:100AF000610E216E80DC0150030806E0610E216E5C
:100B00007ADC0150060809E1226A3C0E216E246A53
:100B1000236E660E256EFBDE1CD0610E216E6BDC33
:100B2000012C09D0226A2D0E216E246A236E680ED4
:100B3000256EEDDE0ED0610E216E5DDC01500408E5
:100B400008E1226A2D0E216E246A236E610E256E45
:100B5000DEDE000C610E216E4EDC015230E11CB471
:100B600009D0226A320E216E246A236E660E256E2B
:100B7000CEDE24D01CA422D020506C0A03E01E0A32
:100B80000FE01CD0226A2D0E216E246A236E610EA6
:100B9000256EBDDE1C948C0E226E68EC01F00ED02A
:100BA000226A2D0E216E246A236E680E256EAFDE3A
:100BB0001C948C0E226E68EC01F000D09CD0610E6B
:100BC000216E19DC0150170814E2610E216E13DC4E
:100BD00001501F080EE3226A410E216E246A236E23
:100BE000620E256E94DE1C84D70E226E68EC01F036
:100BF00082D0610E216EFBEC01F001500F0815E26E
:100C0000610E216EFBEC01F0015017080EE3226A21
:100C1000410E216E246A236E620E256E78DE1C84DE
:100C2000D70E226E68EC01F066D0610E216EFBECEF
:100C300001F00150070815E2610E216EFBEC01F096
:100C400001500F080EE3226A410E216E246A236EC2
:100C5000620E256E5CDE1C84D70E226E68EC01F0FD
:100C60004AD0610E216EFBEC01F0015002081CE03D
:100C7000610E216EFBEC01F00150050815E0610EDC
:100C8000216EFBEC01F0015007080EE0610E216EB1
:100C9000FBEC01F00150030807E0610E216EFBEC54
:100CA00001F00150060809E1226A3C0E216E246A17
:100CB000236E660E256E2BDE1ED0610E216EFBECC0
:100CC00001F0012C09D0226A2D0E216E246A236EB8
:100CD000680E256E1CDE0FD0610E216EFBEC01F05C
:100CE0000150040808E1226A2D0E216E246A236E49
:100CF000610E256E0CDE000C1CB233D0610E216E2D
:100D0000FBEC01F001522CE12050720A03E01E0AB4
:100D100014E026D0226A370E216E246A230E236E39
:100D2000660E256EF4DD020E216EE10E226E68EC79
:100D300001F0212EFAD71C8213D0226A230E216ED5
:100D4000246A370E236E660E256EE1DD020E216EDB
:100D5000E10E226E68EC01F0212EFAD71C8200D041
:100D6000C1D01CA2BFD0610E216EFBEC01F001527C
:100D70001BE11CB409D0226A320E216E246A236E54
:100D8000660E256EC4DD0FD01CA40DD01C94226A03
:100D90002D0E216E246A236E680E256EB8DD8C0E32
:100DA000226E68EC01F09ED0610E216EFBEC01F02A
:100DB0000150170815E2610E216EFBEC01F00150A5
:100DC0001F080EE3226A410E216E246A236E620E12
:100DD000256E9DDD1C84D70E226E68EC01F082D05A
:100DE000610E216EFBEC01F001500F0815E2610E5F
:100DF000216EFBEC01F0015017080EE3226A410E50
:100E0000216E246A236E620E256E81DD1C84D70E4E
:100E1000226E68EC01F066D0610E216EFBEC01F0F1
:100E20000150070815E2610E216EFBEC01F0015044
:100E30000F080EE3226A410E216E246A236E620EB1
:100E4000256E65DD1C84D70E226E68EC01F04AD059
:100E5000610E216EFBEC01F0015002081CE0610EF6
:100E6000216EFBEC01F00150050815E0610E216ECA
:100E7000FBEC01F0015007080EE0610E216EFBEC67
:100E800001F00150030807E0610E216EFBEC01F058
:100E90000150060809E1226A3C0E216E246A236E85
:100EA000660E256E34DD1ED0610E216EFBEC01F066
:100EB000012C09D0226A2D0E216E246A236E680E41
:100EC000256E25DD0FD0610E216EFBEC01F0015087
:100ED000040808E1226A2D0E216E246A236E610E39
:100EE000256E15DD000C1CB22AD0610E216EFBECC4
:100EF00001F001521CE1226A3C0E216E246A236E2D
:100F0000660E256E04DD5A0E226E68EC01F0226A30
:100F1000216A246A236A700E256EF9DC040E216EA4
:100F2000C80E226E68EC01F0212EFAD707D0610EB0
:100F3000216EFBEC01F0015201E01C82D6D01CA214
:100F4000D4D0610E216EFBEC01F0015230E11CB4F3
:100F500009D0226A320E216E246A236E660E256E37
:100F6000D6DC24D01CA422D020506C0A03E01E0A38
:100F70000FE01CD0226A2D0E216E246A236E610EB2
:100F8000256EC5DC1C948C0E226E68EC01F00ED030
:100F9000226A2D0E216E246A236E680E256EB7DC40
:100FA0001C948C0E226E68EC01F000D09ED0610E75
:100FB000216EFBEC01F00150170815E2610E216E65
:100FC000FBEC01F001501F080EE3226A410E216E76
:100FD000246A236E620E256E9ADC1C84D70E226E64
:100FE00068EC01F082D0610E216EFBEC01F0015043
:100FF0000F0815E2610E216EFBEC01F0015017089D
:101000000EE3226A410E216E246A236E620E256E63
:101010007EDC1C84D70E226E68EC01F066D0610E77
:10102000216EFBEC01F00150070815E2610E216E04
:10103000FBEC01F001500F080EE3226A410E216E15
:10104000246A236E620E256E62DC1C84D70E226E2B
:1010500068EC01F04AD0610E216EFBEC01F001500A
:1010600002081CE0610E216EFBEC01F00150050846
:1010700015E0610E216EFBEC01F0015007080EE057
:10108000610E216EFBEC01F00150030807E0610ED8
:10109000216EFBEC01F00150060809E1226A3C0ECA
:1010A000216E246A236E660E256E31DC1ED0610E21
:1010B000216EFBEC01F0012C09D0226A2D0E216E6D
:1010C000246A236E680E256E22DC0FD0610E216E1D
:1010D000FBEC01F00150040808E1226A2D0E216E9C
:1010E000246A236E610E256E12DC000C1B50010A6F
:1010F00007E0030A13E0010A1FE0070A2BE038D0DB
:101100001D506C0804E16C0E206E5FDC06D01D5093
:10111000720803E1720E206E58DC32D01D506C084C
:1011200004E16C0E206E16DD06D01D50720803E13E
:10113000720E206E0FDD24D01D506C0804E16C0E81
:10114000206EDADD06D01D50720803E1720E206EAB
:10115000D3DD16D01D506C0804E16C0E206EC3DE8A
:1011600006D01D50720803E1720E206EBCDE08D05E
:10117000226A216A246A236A700E256E87EC04F0C5
:1011800008EF09F0F86AD09E078EEA6AE96AAA8633
:10119000080EAF6E020EB06EA60EAC6E900EAB6E69
:1011A000176A186A1A6A196A1B6A1C801C921C94B6
:1011B0001F6A1C861C9AB990C19CC19E000EB86E15
:1011C00010EF01F0010E206E1EEF01F03EEF01F076
:1011D000206A51EC01F0206A5BEF01F0F00EF66E30
:1011E000010EF76E166AF2BE168EF29E84EC00F0C7
:1011F00016BEF28E9D8AC00EF2121F50040803E143
:101200007BEF01F01C881CA8F8D795968C866ED7CA
:101210001CA619D0226A216A246A236A700E256EE0
:1012200087EC04F01F6A206A51EC01F01C98186AE0
:101230001C9A1C921C9495908C9095928C929594EB
:0E1240008C9495968C961CB8E0D7D7D70300F7
:020000040030CA
:0E00000000C20C3E3C9D81000FC00FE00F407F
:00000001FF
;PIC18F4431
;CRC=140B  CREATED="23-nov-17 20:52"
