:040000001AEF0DF0F6
:08000800046ED8CF05F0E0CF33
:1000100006F00001E9CF0CF0EACF07F0E1CF08F0DD
:10002000E2CF09F0D9CF0AF0DACF0BF0F3CF12F01C
:10003000F4CF13F0FACF14F000C00EF001C00FF0AF
:1000400002C010F003C011F09DAA2AEF00F09EBA82
:100050005BEF07F09DA030EF00F09EB072EF00F074
:10006000F2AA36EF00F0F2B457EF00F00EC000F045
:100070000FC001F010C002F011C003F00CC0E9FF86
:1000800007C0EAFF078E08C0E1FF09C0E2FF0AC00F
:10009000D9FF0BC0DAFF12C0F3FF13C0F4FF14C086
:1000A000FAFF045006C0E0FF05C0D8FF1000482A40
:1000B000D8B4492A4850720807E149500B0804E1B6
:1000C0004AA001D04A900BD04850E40808E14950BA
:1000D000160805E1496A486A4AB001D04A80F2949C
:1000E00036EF00F0482AD8B4492A48500A0809E1F6
:1000F000495207E1496A486A4AA002D04A9001D0B1
:100100004A809E9036EF00F00D5265706F73696300
:10011000696F6E616D656E746F3A205265706F73B2
:100120006963696F6E61725F6672656E74650D00FA
:100130000D5265706F736963696F6E616D656E7482
:100140006F3A205265706F736963696F6E61725F99
:10015000747261730D000D4E616F20666F692065CA
:1001600073636F6C6869646F20756D207265706F62
:10017000736963696F6E616D656E746F2076616C13
:1001800069646F0D00000D5072696D6569726120C0
:1001900042757363613A204172636F5F4672656EA8
:1001A00074655F4F66656E736976610D00000D5072
:1001B00072696D656972612042757363613A2041AD
:1001C00072636F5F696E766572736F0D00000D4E1E
:1001D000616F20666F69206573636F6C6869646125
:1001E00020756D61207072696D656972612062753C
:1001F0007363612076616C6964610D000D427573F3
:1002000063612050616472616F3A20426173696377
:10021000610D00000D42757363612050616472616D
:100220006F3A2042757363615F4F66656E736976DE
:10023000610D00000D4E616F20666F69206573636C
:100240006F6C6869646120756D61206275736361AC
:100250002070616472616F2076616C6964610D0069
:100260000D2056656C6F6369646164652044652088
:1002700042757363613A202575200D000D20566587
:100280006C6F6369646164652044652041746171C9
:1002900075653A202575200D00000D2056656C6FA0
:1002A000636964616465204465205265746F726E91
:1002B0006F3A202575200D000D4120737472696E10
:1002C00067206573746120636F7272657461203F8B
:1002D00020532F4E0D000D446967697465206E6FC1
:1002E00076616D656E7465206120737472696E67E6
:1002F00020646120657374726174656769610D00C3
:100300000D4573636F6C6861206F206C61646F20B2
:10031000646F206164766572736172696F0D0000AD
:100320008E0E006E6EC001F06DC002F0036A0152C5
:1003300009E102C001F0026A080E005E015202E10A
:10034000006A08D0D89001BE04D0023601360006FB
:10035000F9D7019E000C6D51D8B471D0006E715167
:10036000D8B46DD0002604E3810E002668E204D0E4
:100370007F0E005E64E363E06EC075F07251751B22
:100380006E8F728F70517403F4CF77F06F517303D7
:10039000F4CF03F0F3CF76F07403F3507727F450E3
:1003A0007623000E032270517303F3507727F45025
:1003B0007623000E026A032202226E517403F35068
:1003C0007627F4500322000E02226E517303F3507D
:1003D0000326F4500222000E016A012270517203BA
:1003E000F3507627F4500322000E022201226F51AF
:1003F0007203F3500326F4500222000E01226E51C4
:100400007203F3500226F4500122002A01BE05D0E7
:1004100076370336023601360006000E76AF0AD074
:10042000032A02220122015005E1025003E1035098
:1004300001E1002A75BF018E75AF019E04D0006AEC
:10044000016A026A036A000C8E0E006E6D51005E36
:100450006EC002F06FC001F0028E005209E0D89029
:10046000025202E1015204E002320132002EF7D7BB
:100470006EAF05D0011E021E012AD8B4022A000C5C
:100480006C51660A06E0040A3EE0120AD8B475D040
:100490007CD06BC06EF06AC06DF042DF03C070F0BC
:1004A00002C06FF001C06EF000C06DF00A0E746FF4
:1004B000D70E736F230E726F780E716F4CDF706BF7
:1004C000800E6F6F1B0E6E6F890E6D6F03C074F020
:1004D00002C073F001C072F000C071F03CDF03C0D5
:1004E00070F002C06FF001C06EF000C06DF0ACDFC4
:1004F0006E8201C079FF02C078FF6E926E82776AC9
:10050000766A6E9242D06E82796A786A6E926BC019
:100510006EF06AC06DF004DF03C070F002C06FF0CF
:1005200001C06EF000C06DF00A0E746FD70E736FCD
:10053000230E726F780E716F0EDF706B800E6F6F0F
:100540001B0E6E6F890E6D6F03C074F002C073F0E6
:1005500001C072F000C071F0FEDE03C070F002C096
:100560006FF001C06EF000C06DF06EDF6E8201C0F2
:1005700077FF02C076FF6E9208D06E82796A786A41
:100580006E926E82776A766A6E92000C6C51620A85
:1005900006E0040A3EE0160AD8B475D07CD06BC0E1
:1005A0006EF06AC06DF0BCDE03C070F002C06FF088
:1005B00001C06EF000C06DF00A0E746FD70E736F3D
:1005C000230E726F780E716FC6DE706B800E6F6FC8
:1005D0001B0E6E6F890E6D6F03C074F002C073F056
:1005E00001C072F000C071F0B6DE03C070F002C04E
:1005F0006FF001C06EF000C06DF026DF6E8201C0AA
:1006000075FF02C074FF6E926E82736A726A6E9298
:1006100042D06E82756A746A6E926BC06EF06AC068
:100620006DF07EDE03C070F002C06FF001C06EF0AE
:1006300000C06DF00A0E746FD70E736F230E726FC9
:10064000780E716F88DE706B800E6F6F1B0E6E6F91
:10065000890E6D6F03C074F002C073F001C072F0B8
:1006600000C071F078DE03C070F002C06FF001C00E
:100670006EF000C06DF0E8DE6E8201C073FF02C054
:1006800072FF6E9208D06E82756A746A6E926E8284
:10069000736A726A6E92000C6951660A09E0040A74
:1006A00016E0030A23E0090A30E0180A3DE047D0CB
:1006B00066C06BF065C06AF0660E6C6FE1DE68C004
:1006C0006BF067C06AF0660E6C6F60DF42D066C088
:1006D0006BF065C06AF0620E6C6FD2DE68C06BF0C2
:1006E00067C06AF0620E6C6F51DF33D066C06BF08A
:1006F00065C06AF0620E6C6FC3DE68C06BF067C0E5
:100700006AF0660E6C6F42DF24D066C06BF065C085
:100710006AF0660E6C6FB4DE68C06BF067C06AF09A
:10072000620E6C6F33DF15D06B6B6A6B700E6C6F83
:100730002DDF6B6B6A6B700E6C6FA2DE0AD06B6B79
:100740006A6B700E6C6F22DF6B6B6A6B700E6C6F76
:1007500097DE000C652D06D0C00ED56ED76AD66A1E
:10076000F28A01D0F29A000C0D0E9EA8FED7AD6E53
:10077000666B656B686B676B700E696F8DDF4E6AB9
:10078000656BE8DF186A4F6A4C6A4A924A984A8455
:10079000506A50500B080AE3036A5050230FE96E69
:1007A000000E0320EA6EEF6A502AF3D71F6A206A10
:1007B000216A506A505002081AE3036A50503B0FF6
:1007C000016E000E032203C066F0030E5024036A7C
:1007D000230FE96E000E0320EA6EEFCF67F066C0CC
:1007E000EAFF01C0E9FF67C0EFFF502AE3D73E6A86
:1007F000506A505002081AE3036A5050370F016ED6
:10080000000E032203C066F0060E5024036A230F75
:10081000E96E000E0320EA6EEFCF67F066C0EAFFD4
:1008200001C0E9FF67C0EFFF502AE3D73A6A506A78
:10083000505002081AE3036A50503F0F016E000E39
:10084000032203C066F0090E5024036A230FE96EE9
:10085000000E0320EA6EEFCF67F066C0EAFF01C02A
:10086000E9FF67C0EFFF502AE3D7426A95908C906A
:1008700095928C92EFEF05F00900F5520DE0F6CF5E
:1008800068F0F7CF69F0F5509EA8FED7AD6E68C04E
:10089000F6FF69C0F7FFF0D7000C0D0E9EA8FED73B
:1008A000AD6E6551610A03E0030A07E00CD0080E43
:1008B000F66E010EF76EE0DF0BD0300EF66E010E15
:1008C000F76EDADF05D0560EF66E010EF76ED4DF46
:1008D0006651610A03E0030A07E00CD0860EF66E4B
:1008E000010EF76EC9DF0BD0AE0EF66E010EF76E7D
:1008F000C3DF05D0CE0EF66E010EF76EBDDF675179
:10090000610A03E0030A07E00CD0FC0EF66E010E4C
:10091000F76EB2DF0BD0140EF66E020EF76EACDF80
:1009200005D0340EF66E020EF76EA6DF0DEF06F060
:10093000006A016A6C51D8906DB100260032013214
:100940006DB30026003201326DB50026003201324F
:100950006DB70026003201326DB900260032013237
:100960006DBB0026003201326DBD0026003201321F
:100970006DBF0026003201322AEF05F06A6B686B0A
:100980000A0E696F676B6551661103E1000E016E17
:10099000C1D06A516A2B036A6525E96E665103204E
:1009A000EA6EEFCF6BF06B512D080DE1010E686F11
:1009B0006A516A2B036A6525E96E66510320EA6E67
:1009C000EFCF6BF00DD06B512B080AE16A516A2B07
:1009D000036A6525E96E66510320EA6EEFCF6BF07E
:1009E0006B512F08D8B08ED06B513908D8A08AD05F
:1009F0006B51300821E1036A6A516525E96E665141
:100A00000320EA6EEF5078080AE0036A6A51652510
:100A1000E96E66510320EA6EEF5058080DE1100EA2
:100A2000696F6A2B6A516A2B036A6525E96E665104
:100A30000320EA6EEFCF6BF069510A081BE16B519E
:100A40002F0817E26B51390814E30A0E6C6F67C068
:100A50006DF06ED7300E6B5D0124676F6A516A2BA3
:100A6000036A6525E96E66510320EA6EEFCF6BF0ED
:100A7000E6D748D06951100845E16B51600806E29D
:100A80006B517A0803E36B51DF0B01D06B516B6F35
:100A90006B512F0803E26B51390806E26B51400895
:100AA00031E26B5146082EE36B512F080CE26B517B
:100AB000390809E367396C6FF00E6C17300E6B5D07
:100AC0006C25676F09D067396C6FF00E6C17410E9B
:100AD0006B5D0A0F6C25676F6A516A2B036A652587
:100AE000E96E66510320EA6EEFCF6BF06B51600840
:100AF00006E26B517A0803E36B51DF0B01D06B51B7
:100B00006B6FC6D7682D04D069510A0801E1676D83
:100B100067C001F0000C0900F6CF66F0F7CF67F070
:100B2000F5509EA8FED7AD6E66C0F6FF67C0F7FF12
:100B3000652FF1D7000C6851016A675D03E267C059
:100B400000F00CD0006A080E696F673700366851F4
:100B5000005CD8B0006E0136692FF7D7000C015049
:100B600065C067F0640E686FE6DF00C065F0015095
:100B7000300E07E166A30DD066B70BD066B9200E24
:100B800003D0669766996681012601509EA8FED71C
:100B9000AD6E65C067F00A0E686FCDDF00C065F00E
:100BA0000150300E06E166B709D066A107D066B9DC
:100BB000200E012601509EA8FED7AD6E300E65278F
:100BC00065519EA8FED7AD6E000C4AA608D09EAA1D
:100BD000FED7AECF4DF04D50680801E1C5D5506A43
:100BE00050500B080DE3036A5050230FE96E000EBE
:100BF0000320EA6E9EAAFED7AECFEFFF502AF0D7B1
:100C000023C01FF024C020F025C021F01FC065F0D4
:100C100020C066F021C067F040D6506A50500208EC
:100C20001AE3036A50503B0F016E000E032203C00B
:100C300066F0030E5024036A230FE96E000E0320B2
:100C4000EA6EEFCF67F066C0EAFF01C0E9FF67C058
:100C5000EFFF502AE3D73E6A506A505002081AE369
:100C6000036A5050370F016E000E032203C066F076
:100C7000060E5024036A230FE96E000E0320EA6E6D
:100C8000EFCF67F066C0EAFF01C0E9FF67C0EFFF82
:100C9000502AE3D73A6A506A505002081AE3036AAE
:100CA00050503F0F016E000E032203C066F0090E84
:100CB0005024036A230FE96E000E0320EA6EEFCF83
:100CC00067F066C0EAFF01C0E9FF67C0EFFF502A86
:100CD000E3D7426A666B3B0E656F50DE01C045F09C
:100CE000600EF66E020EF76E170E656F14DF45C0CC
:100CF00065F01B0E666F33DF200E9EA8FED7AD6E2B
:100D00000D0E9EA8FED7AD6E666B370E656F36DE94
:100D100001C044F07C0EF66E020EF76E180E656F81
:100D2000FADE44C065F01B0E666F19DF200E9EA828
:100D3000FED7AD6E0D0E9EA8FED7AD6E666B3F0E54
:100D4000656F1CDE01C046F09A0EF66E020EF76E5D
:100D5000190E656FE0DE46C065F01B0E666FFFDEA4
:100D6000200E9EA8FED7AD6E0D0E9EA8FED7AD6ECE
:100D7000B80EF66E020EF76E7FDD9EAAFED7AECFDE
:100D80004FF04F50530803E04F50730802E14A8878
:100D900075D0D60EF66E020EF76E6EDD4A984A8456
:100DA000506A50500B080AE3036A5050230FE96E53
:100DB000000E0320EA6EEF6A502AF3D71F6A206AFA
:100DC000216A506A505002081AE3036A50503B0FE0
:100DD000016E000E032203C066F0030E5024036A66
:100DE000230FE96E000E0320EA6EEFCF67F066C0B6
:100DF000EAFF01C0E9FF67C0EFFF502AE3D73E6A70
:100E0000506A505002081AE3036A5050370F016EBF
:100E1000000E032203C066F0060E5024036A230F5F
:100E2000E96E000E0320EA6EEFCF67F066C0EAFFBE
:100E300001C0E9FF67C0EFFF502AE3D73A6A506A62
:100E4000505002081AE3036A50503F0F016E000E23
:100E5000032203C066F0090E5024036A230FE96ED3
:100E6000000E0320EA6EEFCF67F066C0EAFF01C014
:100E7000E9FF67C0EFFF502AE3D7426A4AA819D0BA
:100E8000000EF66E030EF76EF7DC9EAAFED7AECF0D
:100E90004BF04B50720A03E01E0A06E00AD04A9457
:100EA000040E4E6E4A9805D04A94040E4E6E4A982F
:100EB00000D05CEF07F089D64F507308FCE19E9A92
:100EC00036EF00F0536F667477617265204D65747C
:100ED000616C4761727572756D6F6E0D44617461FE
:100EE0003A2031342D6A756E2D31380D486F72619C
:100EF00072696F3A2030303A34313A34390D00009B
:100F0000FF0E926E000E936EB70E946E000E956EED
:100F1000968296829682968241EF0DF0512C17D0E0
:100F20005F0E6F6EFF0E6B6E6E6A7F6A800E7E6E56
:100F3000210E6D6E7D6A7C6A370E7B6E010E7A6EB5
:100F4000716A706A939C8A8C939E8A8E05D06F6AB0
:100F5000939C8A9C939E8A9E45EF0DF0B980C19C1C
:100F6000C19EFF0EB86E000B9A6EC050800B070931
:100F7000C06EC294C296C298C29AC08EC28047EF19
:100F80000DF0512C08D0950ECD6EA80ECF6E1B0E15
:100F9000CE6E9D8001D09D9053EF0DF0EA6A530E06
:100FA000E96EEF500DE0060E016E006A002EFED7CE
:100FB000012EFBD77B0E006E002EFED7EF2EF3D74F
:100FC000000C516A515004080BE3040E526EF00EEF
:100FD000536EE4DF522EFBD795908C70512AF2D7D6
:100FE00067EF0DF0166AF2BE168EF29E666B280E43
:100FF000656F686B676F660E696F4CEC03F016BE29
:10100000F28E020E516E8C0E536EC8DF512EFBD73E
:10101000010E4C6ECBEF0CF0166AF2BE168EF29EED
:10102000666B280E656F686B676F620E696F4CECBC
:1010300003F016BEF28E020E516E8C0E536EAEDFB2
:10104000512EFBD7010E4C6ECBEF0CF05150720AB3
:1010500003E01E0A1BE034D0166AF2BE168EF29E22
:10106000666B370E656F686B230E676F660E696F70
:101070004CEC03F016BEF28E020E526ED20E536E80
:101080008DDF522EFBD7020E4C6E1AD0166AF2BEBE
:10109000168EF29E666B230E656F686B370E676F58
:1010A000660E696F4CEC03F016BEF28E020E526EA5
:1010B000D20E536E73DF522EFBD7020E4C6E00D051
:1010C000000C586A576A5650F90F21E2070FD3EF08
:1010D00008F0100E996E050EC26E19D0040E996EAE
:1010E000090EC26E14D0010E996EC26E10D0996AAC
:1010F0000D0EC26E0CD0996A090EC26E08D0996AA4
:10110000050EC26E04D0996A010EC26E00D0100E98
:10111000006E002EFED70000C282C2B2FED7C3CF3F
:1011200057F0C4CF58F05650060803E05650050853
:101130000FE15850555C08E303E15450575C04E25A
:10114000010E016E2FD003D0000E016E2BD02AD0DD
:101150005650020805E05650040802E056520FE1CE
:101160005850555C08E303E15450575C04E2010E0B
:10117000016E18D003D0000E016E14D013D056505B
:10118000030802E0562C0ED05850555C08E303E1EA
:101190005450575C04E2010E016E04D003D0000EDF
:1011A000016E00D0000CF2CF0DF0F29EE824F76A39
:1011B000F736CB0FF66E110EF7220A00F550FA6ED5
:1011C0000800F5500DBEF28EF96E0611FE10F610F5
:1011D000EE10E610DC10D21052506C0A09E0080A3A
:1011E00032E0170AD8B46AD0120AD8B4A9D005D10F
:1011F000179E020E556E546A080E566E62DF01523B
:1012000001E000D0020E556E546A070E566E59DF8B
:10121000015202E0178E01D0179E536A5350040802
:101220000EE3010E006E5350016E04E0D8900036BC
:10123000012EFCD70050FF0A1716532AEFD717C00C
:1012400001F0F0D0EFD0179E010E556ED60E546E01
:10125000020E566E36DF015202E0178401D0179459
:10126000010E556ED60E546E040E566E2ADF0152D4
:1012700002E0178801D01798010E556ED60E546EF5
:10128000566A1FDF015202E0178001D01790030E4B
:10129000536E535007080EE3010E006E5350016E5B
:1012A00004E0D8900036012EFCD70050FF0A171634
:1012B000532AEFD717C001F0B5D0B4D0179E010E56
:1012C000556EF40E546E030E566EFBDE015202E0B4
:1012D000178601D01796010E556EF40E546E010E4E
:1012E000566EEFDE015202E0178201D01792020E15
:1012F000536E53520EE1010E006E5350016E04E026
:10130000D8900036012EFCD70050FF0A171653065E
:10131000F0D7050E536E535007080EE3010E006E12
:101320005350016E04E0D8900036012EFCD70050D7
:10133000FF0A1716532AEFD717C001F073D072D0E7
:10134000179E020E556E546A060E566EBADE015294
:1013500002E0178C01D0179C020E556E546A050EE0
:10136000566EAFDE015202E0178A01D0179A010EC5
:10137000556EF40E546E030E566EA3DE015202E05B
:10138000178801D01798010E556EF40E546E010E99
:10139000566E97DE015202E0178601D01796010EB5
:1013A000556ED60E546E020E566E8BDE015202E062
:1013B000178401D01794010E556ED60E546E040E8C
:1013C000566E7FDE015202E0178201D01792010EA5
:1013D000556ED60E546E566A74DE015202E01780C6
:1013E00001D01790175205E017501F0802E317C0ED
:1013F00018F017C001F016D015D0536A53500708E3
:101400000EE3010E006E5350016E04E0D8900036DA
:10141000012EFCD70050FF0A1716532AEFD717C02A
:1014200001F000D0000C610E526ED6DE01523BE19D
:101430005150720A03E01E0A1BE034D0166AF2BE55
:10144000168EF29E666B460E656F686B320E676F86
:10145000620E696F4CEC03F016BEF28E020E526EF5
:10146000AF0E536E9BDD522EFBD7020E4C6E1AD080
:10147000166AF2BE168EF29E666B320E656F686B50
:10148000460E676F620E696F4CEC03F016BEF28E6B
:10149000020E526EAF0E536E81DD522EFBD7020E3E
:1014A0004C6E00D007D0610E526E96DE015202E003
:1014B000020E4C6E000C610E526E8EDE015236E151
:1014C00051506C0A03E01E0A18E02FD0166AF2BED3
:1014D000168EF29E666B45C065F0686B45C067F07E
:1014E000610E696F4CEC03F016BEF28E182C04D01E
:1014F000500E536E53DD186A18D0166AF2BE168E5F
:10150000F29E666B45C065F0686B45C067F0680E7B
:10151000696F4CEC03F016BEF28E1850040804E11B
:10152000500E536E3BDD186A00D0E6D0610E526E4D
:1015300053DE01505F0817E2610E526E4DDE01501E
:101540007F0811E3166AF2BE168EF29E666B46C0E5
:1015500065F0686B46C067F0620E696F4CEC03F093
:1015600016BEF28EC9D0610E526E36DE01503F08B3
:1015700017E2610E526E30DE01505F0811E3166A09
:10158000F2BE168EF29E666B46C065F0686B46C072
:1015900067F0620E696F4CEC03F016BEF28EACD0B1
:1015A000610E526E19DE01501F0817E2610E526E75
:1015B00013DE01503F0811E3166AF2BE168EF29E4A
:1015C000666B46C065F0686B46C067F0620E696F77
:1015D0004CEC03F016BEF28E8FD0610E526EFCDD25
:1015E0000150020818E0610E526EF6DD0150050848
:1015F00012E0610E526EF0DD015007080CE0610E42
:10160000526EEADD0150030806E0610E526EE4DD21
:101610000150060811E1166AF2BE168EF29E666B44
:1016200044C065F0686B44C067F0660E696F4CECAF
:1016300003F016BEF28E60D0610E526ECDDD015009
:10164000100814E1166AF2BE168EF29E666B45C053
:1016500065F0686B45C067F0610E696F4CEC03F094
:1016600016BEF28EDC0E536E99DC46D0610E526EC1
:10167000B3DD0150080814E1166AF2BE168EF29E20
:10168000666B45C065F0686B45C067F0680E696FB2
:101690004CEC03F016BEF28EDC0E536E7FDC2CD0C9
:1016A000610E526E99DD012C11D0166AF2BE168EB3
:1016B000F29E666B44C065F0686B44C067F0680ECC
:1016C000696F4CEC03F016BEF28E16D0610E526EAE
:1016D00083DD0150040810E1166AF2BE168EF29EF8
:1016E000666B45C065F0686B45C067F0610E696F59
:1016F0004CEC03F016BEF28E000C610E526E6CDDE7
:10170000015246E14AB211D0166AF2BE168EF29E1E
:10171000666B45C065F0686B45C067F0660E696F23
:101720004CEC03F016BEF28E32D04AA230D05150AB
:101730006C0A03E01E0A16E02AD0166AF2BE168E64
:10174000F29E666B45C065F0686B45C067F0610E40
:10175000696F4CEC03F016BEF28E4A928C0E536EFB
:101760001DDC15D0166AF2BE168EF29E666B45C061
:1017700065F0686B45C067F0680E696F4CEC03F06C
:1017800016BEF28E4A928C0E536E08DC00D0F4D056
:10179000610E526E21DD01505F081BE2610E526E38
:1017A0001BDD01507F0815E3166AF2BE168EF29E0D
:1017B000666B46C065F0686B46C067F0620E696F85
:1017C0004CEC03F016BEF28ED70E536ECEEC07F043
:1017D000D3D0610E526E00DD01503F081BE2610E56
:1017E000526EFADC01505F0815E3166AF2BE168EDF
:1017F000F29E666B46C065F0686B46C067F0620E8D
:10180000696F4CEC03F016BEF28ED70E536ECEEC21
:1018100007F0B2D0610E526EDFDC01501F081BE2F0
:10182000610E526ED9DC01503F0815E3166AF2BE14
:10183000168EF29E666B46C065F0686B46C067F018
:10184000620E696F4CEC03F016BEF28ED70E536E2B
:10185000CEEC07F091D0610E526EBEDC0150020852
:1018600018E0610E526EB8DC0150050812E0610EFE
:10187000526EB2DC015007080CE0610E526EACDC17
:101880000150030806E0610E526EA6DC0150060806
:1018900011E1166AF2BE168EF29E666B44C065F0C8
:1018A000686B44C067F0660E696F4CEC03F016BEBF
:1018B000F28E62D0610E526E8FDC0150080815E185
:1018C000166AF2BE168EF29E666B45C065F0686BB6
:1018D00045C067F0680E696F4CEC03F016BEF28EDF
:1018E000DC0E536ECEEC07F047D0610E526E74DC06
:1018F0000150100815E1166AF2BE168EF29E666B54
:1019000045C065F0686B45C067F0610E696F4CECCF
:1019100003F016BEF28EDC0E536ECEEC07F02CD028
:10192000610E526E59DC012C11D0166AF2BE168E71
:10193000F29E666B45C065F0686B45C067F0680E47
:10194000696F4CEC03F016BEF28E16D0610E526E2B
:1019500043DC0150040810E1166AF2BE168EF29EB6
:10196000666B45C065F0686B45C067F0610E696FD6
:101970004CEC03F016BEF28E000C4C520DE11F50E1
:10198000610A03E0030A04E006D0F2EF07F003D097
:101990000CEF08F000D04CD04C2C25D02050610A20
:1019A00003E0030A11E01ED04B506C0805E16C0EF9
:1019B000516E26EC08F007D04B50720804E1720E0D
:1019C000516E26EC08F00ED04B506C0804E16C0E02
:1019D000516E29DD06D04B50720803E1720E516E34
:1019E00022DD00D025D04C50020822E12150610AAE
:1019F00003E0030A0FE01CD04B506C0804E16C0EAE
:101A0000516E59DD06D04B50720803E1720E516ED3
:101A100052DD0ED04B506C0804E16C0E516E6DDE41
:101A200006D04B50720803E1720E516E66DE00D094
:101A30006DEF0DF0F86AD09E078EEA6AE96AAA8611
:101A4000080EAF6E020EB06EA60EAC6E900EAB6EB0
:101A5000176A186A436A446A456A466A476A496A65
:101A6000486A4A804A924C6A4E6A4A844A964A9820
:101A7000B990C19CC19E000EB86E196A1A6A80EFB7
:101A800007F0010E516E8EEF07F0AEEF07F0166A09
:101A9000F2BE168EF29E656BAAEC03F016BEF28EB5
:101AA000516AC1EF07F0C40EF66E0E0EF76E166A9D
:101AB000F2BE168EF29E3CEC04F016BEF28E9D8AAB
:101AC000C00EF2124E50040803E1E1EF07F04A861F
:101AD0004AA6F8D795908C8050D74AB6FBD7F2D754
:021AE000030001
:020000040030CA
:0E00000000C20C3E3C9D81000FC00FE00F407F
:00000001FF
;PIC18F4431
;CRC=8BB3  CREATED="14-jun-18 00:41"
